:020000040800F2
:100000000000022039A30108F1540108F35401084B
:10001000F5540108F7540108F954010800000000E4
:10002000000000000000000000000000FB54010878
:10003000FD54010800000000FF54010801550108AB
:1000400089A3010889A3010889A3010889A30108DC
:1000500089A3010889A3010889A3010889A30108CC
:1000600089A3010889A3010889A3010889A30108BC
:1000700089A3010889A3010889A3010889A30108AC
:1000800089A3010889A301080555010889A301086E
:1000900089A3010889A3010889A3010889A301088C
:1000A00089A3010889A3010889A3010889A301087C
:1000B00089A3010889A3010889A3010889A301086C
:1000C00089A3010889A3010889A3010889A301085C
:1000D00089A3010889A3010889A3010889A301084C
:1000E00089A3010889A3010889A3010889A301083C
:1000F00089A3010889A301081155010889A30108F2
:1001000089A3010889A3010889A3010889A301081B
:1001100089A3010889A301081D55010889A30108C5
:10012000615A010889A3010889A3010889A301086C
:1001300089A30108000000000000000089A3010855
:1001400089A3010889A3010889A3010889A30108DB
:1001500089A3010889A3010889A3010889A30108CB
:1001600089A3010889A3010889A3010889A30108BB
:1001700089A3010889A30108000000000000000015
:0801800089A3010889A301080D
:1001900010B5054C237833B9044B13B10448AFF3C1
:1001A00000800123237010BDE0010020000000004A
:1001B00040CB010808B5034B1BB103490348AFF31B
:1001C000008008BD00000000E401002040CB0108D1
:1001D0007047704710B5094B4FF0FF3200241A6288
:1001E0001C625A625C621A611C615A615C619A61AC
:1001F0009C61FFF7EEFF204610BD00BF00380240B3
:1002000070B50E4A0E4E05464FF47A733078B3FB44
:10021000F0F31068B0FBF3F001F03CF9044650B97C
:100220000F2D08D8024629464FF0FF3001F0D2F8D2
:100230007560204670BD012070BD00BF0C0000201D
:100240000000002008B50B4B1A6842F400721A60D7
:100250001A6842F480621A601A6842F480721A6066
:10026000032001F0A5F80020FFF7CAFF15F022F9DE
:10027000002008BD003C0240034A044B11681B7873
:100280000B441360704700BF2C02002000000020C8
:10029000014B1868704700BF2C020020014B5868C2
:1002A000704700BF0000002008B5054B1A78824255
:1002B00004D018705868FFF7A3FF08BD002008BDE0
:1002C00000000020014B1878704700BF000000209C
:1002D00038B50446FFF7DCFF631C1CBF054B1B78D9
:1002E000054618BFE418FFF7D3FF401B8442FAD835
:1002F00038BD00BF00000020024A136823F002034B
:100300001360704710E000E0024A136843F00203F4
:100310001360704710E000E00048704700040701D8
:10032000014B1868000C7047002004E0024B18686D
:10033000C0F30B00704700BF002004E0024A53687E
:1003400043F0010353607047002004E0024A536801
:1003500023F0010353607047002004E0024A536811
:1003600043F0020353607047002004E0024A5368E0
:1003700023F0020353607047002004E0024A5368F0
:1003800043F0040353607047002004E0024A5368BE
:1003900023F0040353607047002004E0014B012266
:1003A0001A60704700042742014B00221A60704710
:1003B00000042742044B1B680360044B1B68436026
:1003C000034B1B6883607047107AFF1F147AFF1F6E
:1003D000187AFF1F704710B50446002800F0998076
:1003E000036C23B9436480F83C300CF08DFF236C20
:1003F000DB0600F18C80236C23F4885323F0020386
:1004000043F002032364444B5A6822F440325A609A
:100410005A6861680A435A60236821695A6822F45D
:1004200080725A605A6842EA01225A605A68A1688A
:1004300022F040725A605A680A435A609A68E1682A
:1004400022F400629A609A680A439A603349A26A69
:100450008A4250D0996821F07061996099680A4386
:100460009A609A68E16A22F040529A609A680A4358
:100470009A609A68A16922F002029A609A6842EA38
:1004800041029A60226A002A3DD05A68616A42F4A9
:1004900000625A605A6822F460425A605A68013910
:1004A00042EA41325A60DA6AE16922F47002DA62A1
:1004B000DA6A013942EA0152DA629A68216B22F45F
:1004C00000729A609A6842EA41229A609A68616969
:1004D00022F480629A609A68002042EA81229A603F
:1004E0006064236C23F0030343F0010323640023BF
:1004F00084F83C3010BD9A6822F070629A609A6865
:1005000022F04052B4E75A6822F40062CAE70120A0
:10051000EDE7012010BD00BF002301400100000FE6
:10052000704738B50446A0B1036C43F0020303647E
:1005300003689A6822F001029A609D6815F001052F
:1005400003D10CF051FF65642564002084F83C0061
:1005500038BD012038BD82B00023019390F83C30B3
:10056000012B4ED0012380F83C3003689A68D107F4
:1005700005D59A68D20714D4002002B070479A6853
:10058000214942F001029A60204A1268B2FBF1F25E
:1005900002EB42020192019A002AEAD0019A013A42
:1005A000F8E7026C22F4E06222F0010242F4807269
:1005B00002645A68510541BF026C22F4405242F471
:1005C00080520264026C12F480521CBF426C22F012
:1005D00006024264002280F83C206FF022021A607A
:1005E0000B4A5268D20608D1986810F04050C3D127
:1005F0009A6842F080429A60BFE7064A9342BBD1B4
:10060000F2E70220B9E700BF40420F000C000020D3
:10061000002301400020014090F83C30012B17D00E
:10062000012380F83C3003689A6822F001029A6046
:100630009B68DB0707D4036C23F4885323F0010382
:1006400043F001030364002380F83C3018467047F0
:100650000220704703689A6870B5560504460D4637
:100660000BD59B68D80508D5236C43F02003236481
:10067000002384F83C30012070BDFFF709FE0646D8
:1006800023681A6892070CD56FF012021A60226C68
:1006900042F4007222649A6812F0405F13D0002086
:1006A00070BD691CEDD045B9236C43F0040323648D
:1006B000002384F83C30032070BDFFF7E9FD801B68
:1006C0008542DDD2F0E7A269002AE8D1DA6A12F4A5
:1006D000700F02D09B685B05E1D4236C23F4807318
:1006E0002364206C10F48050D9D1236C43F00103B3
:1006F000236470BDF8B504460E461546FFF7C8FDE5
:10070000074623681A6836EA02020AD1012E226CD3
:1007100019D142F4803222646FF001021A60002085
:10072000F8BD6A1CEED045B9236C43F00403236482
:10073000002384F83C300320F8BDFFF7A9FDC01B5F
:100740008542DED2F0E742F480622264626C42F0BD
:10075000020262646FF02002E0E782B0002301939E
:1007600090F83C30012B54D0012380F83C300368D2
:100770009A68D10705D59A68D20714D4002002B030
:1007800070479A68244942F001029A60234A12682D
:10079000B2FBF1F202EB42020192019A002AEAD086
:1007A000019A013AF8E7026C22F4E06222F00102B9
:1007B00042F4807202645A68510541BF026C22F40F
:1007C000405242F480520264026C12F480521CBF08
:1007D000426C22F006024264002280F83C206FF056
:1007E00022021A605A6842F0806242F020025A6087
:1007F0000B4A5268D20608D1986810F04050BDD11B
:100800009A6842F080429A60B9E7064A9342B5D1AD
:10081000F2E70220B3E700BF40420F000C000020C7
:10082000002301400020014090F83C30012B1DD0F6
:10083000012380F83C3003689A6822F001029A6034
:100840009A68D2070DD45A6822F0806222F0200202
:100850005A60036C23F4885323F0010343F001032F
:100860000364002380F83C3018467047022070472C
:1008700037B513460022019290F83C20012A044625
:1008800065D00568012280F83C20AA68D20705D50A
:10089000AA68D00715D4002003B030BDAA6842F082
:1008A0000102AA602B4A10682B4AB0FBF2F000EB61
:1008B00040000190019A002AEAD0019A013A01927F
:1008C000F8E7206C20F4E06020F0010040F4807034
:1008D00020646A68520541BF206C20F4405040F407
:1008E00080502064226CA06B12F480521CBF626C9A
:1008F00022F006026264002284F83C20174AC26398
:10090000174A0264174AC2646FF022022A606A68BA
:1009100042F080626A60AA6842F48072AA600A4665
:1009200005F14C0100F076FF0F4B5B6813F01F0FD1
:10093000236808D1986810F04050ACD19A6842F012
:1009400080429A60A8E7094A9342A4D1F2E70220C4
:10095000A2E700BF0C00002040420F00D3090008AE
:10096000350A00086B0B00080023014000200140FD
:1009700090F83C30012B10B5044624D0012380F8B8
:100980003C3003689A6822F001029A609A68D207A4
:1009900017D49A68806B22F480729A6000F078FF16
:1009A0002268536823F080635360236C23F48853D8
:1009B00023F0010343F001032364002384F83C3057
:1009C00010BD0020F9E7022010BD0368D86C704705
:1009D0007047836B1A6C12F0500F10B524D11A6C4B
:1009E00042F400721A641A68916811F0405F17D1DE
:1009F0009969A9B9D16A11F4700F02D091684905BB
:100A00000ED4516821F0200151601A6C22F48072DA
:100A10001A641A6CD2045EBF1A6C42F001021A64A6
:100A200018460CF005FD10BD9B6BBDE81040DB6C5B
:100A30001847704708B5806BFFF7FBFF08BD70478C
:100A4000704738B5036819685A688D0704462BD576
:100A5000900629D5226CD1065EBF226C42F400724A
:100A600022649A6812F0405F17D1A269AAB9DA6AC3
:100A700012F4700F02D09A6852050ED45A6822F010
:100A800020025A60236C23F480732364236CDB04FC
:100A90005EBF236C43F00103236420460CF0C8FCC6
:100AA00023686FF012021A60236819685A684D07AC
:100AB00032D5100630D5226CD1065EBF226C42F4CE
:100AC000005222649A6812F4401F1ED19A6B12F4ED
:100AD000401F02D09A68520517D45A68550514D49D
:100AE0009A6812F0405F10D1A26972B95A6822F078
:100AF00080025A60236C23F480532364236CD8054E
:100B00005EBF236C43F001032364204600F062FBC8
:100B100023686FF00C021A60236819685A68C907C5
:100B20000FD555060DD51B68D8070AD5236C43F49D
:100B3000803323642046FFF782FF23686FF00102B1
:100B40001A60236819685A6889060DD552010BD5B9
:100B5000626C6FF0200542F00202626420461D6064
:100B6000FFF76EFF23681D6038BD806B08B540231A
:100B70000364436C43F004034364FFF761FF08BD63
:100B8000F7B50023019390F83C30012B00F08380EF
:100B90000D6804688A680123092D80F83C30AEB2E4
:100BA0002AD906EB4603E7681E3B4FF0070E0EFA04
:100BB00003FE27EA0E07E760E76802FA03F33B4308
:100BC000E3604A68062A4FEA820325D81344676B1C
:100BD000591F1F238B4027EA03036363626B06FAE6
:100BE00001F1114361632D4B9C4234D0002380F806
:100BF0003C30184603B0F0BD276905EB45034FF0C4
:100C0000070E0EFA03FE27EA0E072761276902FA8C
:100C100003F33B432361D4E70C2A0ED81344216B22
:100C2000A3F123021F23934021EA03032363236BD1
:100C300006FA02F21A432263D5E71344E16A413B04
:100C40001F229A4021EA0202E262E26A06FA03F1F6
:100C50001143E162C7E7122D04D1114A536843F4EE
:100C600080035360A5F11003012BBFD80C4A5368D1
:100C7000102D43F400035360B8D10A4B0A4A1B6895
:100C8000B3FBF2F20A2353430193019B002BADD037
:100C9000019B013BF8E70220ACE700BF00200140C8
:100CA000002301400C00002040420F0090F83C302F
:100CB000012B10B527D0012380F83C300B69012BA4
:100CC00003685A680CBF42F0400222F040025A60AA
:100CD0005A680C6822F4400222F400725A605A6882
:100CE00022435A604A685A628A689A625A6822F0B5
:100CF0001F025A605C688A8922435A60002380F888
:100D00003C30184610BD022010BD006C7047406C8E
:100D1000704700BF806B40230364436C43F00403BF
:100D20004364FFF78DBE806BFFF783BE836B1A6C45
:100D300012F0500F23D11A6C42F400721A641A6830
:100D4000916811F0405F17D19969A9B9D16A11F47E
:100D5000700F02D0916849050ED4516821F020012E
:100D600051601A6C22F480721A641A6CD2045EBF4D
:100D70001A6C42F001021A6418460CF059BB9B6BC6
:100D8000DB6C184782B00023019390F83C30012BB4
:100D900047D0012380F83C3003689A68D10705D515
:100DA0009A68D20714D4002002B070479A681E498E
:100DB00042F001029A601D4A1268B2FBF1F202EBA6
:100DC00042020192019A002AEAD0019A013AF8E718
:100DD000026C22F4405222F0010242F4805202647A
:100DE000026C12F4807208BF4264002280F83C203A
:100DF0006FF004021A600E4A526812F01F0F9A68D0
:100E000058680AD112F4401FCDD110F48060CAD1C5
:100E10009A6842F480029A60C6E706498B42C2D1C2
:100E2000F0E70220C0E700BF40420F000C000020A6
:100E3000002301400020014082B00023019390F87C
:100E40003C30012B4BD0012380F83C3003689A687A
:100E5000D10705D59A68D20714D4002002B0704794
:100E60009A68204942F001029A601F4A1268B2FB58
:100E7000F1F202EB42020192019A002AEAD0019AB1
:100E8000013AF8E7026C22F4405222F0010242F4E7
:100E900080520264026C12F4807208BF4264002225
:100EA00080F83C206FF004021A605A6842F0800219
:100EB0005A600E4A526812F01F0F9A6858680AD199
:100EC00012F4401FC9D110F48060C6D19A6842F470
:100ED00080029A60C2E706498B42BED1F0E7022049
:100EE000BCE700BF40420F000C000020002301407F
:100EF0000020014090F83C30012B024626D001230F
:100F000080F83C30036CDB0518D401684B6813F49F
:100F1000806313D1886820F001008860886810F031
:100F2000010011D1136C23F4885323F0010343F023
:100F300001031364002382F83C307047136C43F0C4
:100F4000200313640120F5E71846F3E702207047F9
:100F500070B504460D46FFF79BF9064623681A68EC
:100F600050070CD56FF00C021A60226C42F400524C
:100F700022649A6812F4401F11D0002070BD6A1CD0
:100F8000EDD035B904232364002384F83C300320DA
:100F900070BDFFF77DF9801B8542DFD2F2E79A6BC7
:100FA00012F4401F02D09A685105E6D45A685205DF
:100FB000E3D49B6813F0405FDFD1A369002BDCD141
:100FC000236C23F480532364206C10F48070D4D1FC
:100FD000236C43F00103236470BD90F83C30012B77
:100FE00002462AD0012380F83C30036CDB051CD478
:100FF00001684B6813F4806317D1886820F0010002
:101000008860886810F0010015D14B6823F08003D8
:101010004B60136C23F4885323F0010343F0010366
:101020001364002382F83C307047136C43F02003B4
:1010300013640120F5E71846F3E70220704782B0F9
:101040000023019303686FF0040201391A60032939
:1010500005D8DFE801F00B0907029B6C01930198AA
:1010600002B070475B6CF9E71B6CF7E7DB6BF5E7E9
:1010700037B513460022019290F83C20012A04461D
:1010800062D00568012280F83C20AA68D20705D505
:10109000AA68D00715D4002003B030BDAA6842F07A
:1010A0000102AA60294A1068294AB0FBF2F000EB5D
:1010B00040000190019A002AEAD0019A013A019277
:1010C000F8E7206C20F4E06020F0010040F480702C
:1010D00020646A68520541BF206C20F4405040F4FF
:1010E00080502064226CA06B12F480521CBF626C92
:1010F00022F006026264002284F83C20154AC26392
:10110000154A0264154AC2646FF002022A606A68D6
:1011100042F080626A60256B114A8DB1556845F4D2
:10112000005555600A460F4900F074FB2368986823
:1011300010F04050AFD19A6842F080429A60ABE71D
:10114000556825F40055ECE70220A5E70C000020C7
:1011500040420F002D0D0008270D0008150D000856
:10116000002301400823014090F83C30012B10B5CA
:10117000044625D0012380F83C3003689A6822F0A9
:1011800001029A609B68DB0718D40E4A806B536893
:1011900023F40053536000F07BFB2268536823F074
:1011A00080635360236C23F4885323F0010343F0DE
:1011B00001032364002384F83C3010BD0020F9E7CC
:1011C000022010BD00230140014B9868704700BF0A
:1011D00000230140704790F83C30012BF0B500F03F
:1011E000B5800C688A680123092C80F83C30A6B2CF
:1011F000036876D906EB4605DF681E3D4FF0070E03
:101200000EFA05FE27EA0E07DF60DF6802FA05F531
:101210003D43DD609A6BD1F810E04F6822F4401234
:101220009A639D6B0EF1FF3245EA0255FA1CA2EB60
:101230000E029D63D2B29D6B02EB82024FF01F0E35
:101240000EFA02FE25EA0E059D639D6B06FA02F278
:101250002A439A633E4DCA69AA4252D09D6825F43A
:1012600070259D609D682A439A609A680D6A22F4F1
:1012700040129A609A682A439A608A69002A48D084
:101280005A6842F480625A604A69002A45D05A6816
:1012900042F480525A60022F2E4DCA6841D0032F6B
:1012A00046D0012F4BD159690D405D6159690A4300
:1012B0005A61294A93420FD1122C05D1D2F8043336
:1012C00043F48003C2F80433103C012C04D8234AB1
:1012D000536843F400035360002380F83C30184601
:1012E000F0BD1F6904EB44054FF0070E0EFA05FE32
:1012F00027EA0E071F611F6902FA05F53D431D61CC
:1013000088E79A6822F470229A609A6822F4401260
:10131000B2E75A6822F48062B5E75A6822F4805234
:10132000B8E799690D409D6199690A439A61C0E7E0
:10133000D9690D40DD61D9690A43DA61B9E7196AF3
:101340000D401D62196A0A431A62B2E70220F0BD1D
:1013500001000F0000F0FFFF0020014000230140CA
:1013600090F83C30012B10B51DD0104B5A6822F07C
:101370001F025A605A680C6822435A605A6822F465
:1013800040425A605A684C6822435A605A6822F4B4
:1013900070625A605A6889680A435A60002380F86C
:1013A0003C30184610BD022010BD00BF0023014094
:1013B000074AD36823F4E0631B041B0C43F0BF63AC
:1013C000000243F4003300F4E0600343D36070474D
:1013D00000ED00E0174B30B5DC68C4F30224C4F123
:1013E0000703251D042B28BF0423062D4FF00105FC
:1013F00005FA03F303F1FF338CBF033C00241940CB
:10140000A14005FA04F4013C2240002842EA01020E
:101410004FEA0212AFBF00F1604000F00F00064B30
:10142000D2B2A5BF00F56140D2B21A5480F80023B1
:1014300030BD00BF00ED00E014ED00E042090123E3
:1014400000F01F0003FA00F0014B43F82200704740
:1014500000E100E04309012200F01F0002FA00F061
:101460002033024A42F82300704700BF00E100E049
:10147000BFF34F8F0549064BCA6802F4E06213437D
:10148000CB60BFF34F8F00BFFDE700BF00ED00E072
:101490000400FA050138B0F1807F0AD2064B074AF2
:1014A0005860F02182F823100020072298601A600B
:1014B00070470120704700BF10E000E000ED00E041
:1014C000BFF35F8F044A536A23F480335362034BA4
:1014D00000225A60704700BF00ED00E090ED00E090
:1014E000064B074A40F001005860536A43F48033CA
:1014F0005362BFF34F8FBFF36F8F704790ED00E0E3
:1015000000ED00E0124A437810B593600178D9B13C
:101510004368D360C37A047B1B0643EA04730B431E
:10152000817A43EAC143417B43EA8143817B43EAB9
:101530004143C17B43EA0143417A43EA0123017AF3
:1015400043EA4103136110BDD160116110BD00BFBA
:1015500090ED00E0024BD868C0F30220704700BF56
:1015600000ED00E070B50028ADBF00F1604000F074
:101570000F00114C00F5614001F00701B4BF255C7C
:1015800090F80053C1F107000C1D042828BF042067
:10159000062C4FEA15158CBF03390021012425FACA
:1015A00001F604FA00F004FA01F101380139304083
:1015B00029401060196070BD14ED00E0430901225C
:1015C00000F01F0002FA00F04033024A42F8230004
:1015D000704700BF00E100E04309054A403300F0D6
:1015E0001F0052F8233023FA00F000F0010070478A
:1015F00000E100E04309012200F01F0002FA00F0C0
:101600006033024A42F82300704700BF00E100E067
:101610004309054A803300F01F0052F8233023FAB3
:1016200000F000F00100704700E100E0044B1A6890
:1016300004280CBF42F0040222F004021A60704732
:1016400010E000E0704708B5FFF7FCFF08BD00BFE1
:101650000368DAB223F47F7323F003031821103AEE
:10166000B2FBF1F20449032A88BF0433895C836525
:10167000C165806D704700BF58CB010870B5044646
:10168000FEF706FE0546002C71D0002384F83430A6
:101690002268022384F83530136823F001031360B5
:1016A00021680B68D8073CD40B68324D6268A0698A
:1016B0001D40A3681343E268134322691343626920
:1016C0001343E26903431343226A1343626A042A01
:1016D00043EA050301BF266BE56A35432B430B60E4
:1016E0004B69042A23F0070343EA02030BD1A26AE1
:1016F000E56A13433DB1F8B9012A2DD001D3022A7E
:1017000001D1EA012BD44B612046FFF7A1FFE26D26
:101710003F239340836000200123606584F83530C7
:1017200070BDFEF7B5FD401B0528B9D920236365C0
:10173000032084F8350070BDB0F5005F13D1032A93
:10174000E1D801A050F822F05F1700080317000845
:101750005F17000859170008B5F1C07FD3D14023A7
:1017600063650120E5E7022AF9D9032AC8E70120C9
:1017700070BD00BF3F8010F038B50546F0B190F85D
:101780003540E4B2022C17D003681A6822F0010237
:101790001A60002421221C605C609C60DC601C617B
:1017A0005A61FFF755FFEA6D3F23934083606C65F4
:1017B00085F8344085F83540204638BD012038BDD5
:1017C00030B590F83440012C22D0012480F8344008
:1017D00090F83540012C4FF000054FF0020415D170
:1017E00080F8354004684565256825F48025256026
:1017F00063608368402B0BBFA260A160E160E26080
:10180000236843F001032360002030BD80F834508A
:10181000022030BD70B590F83440012C36D0012440
:1018200080F8344090F83540866D012C4FF000056B
:101830004FF0020428D180F83540046845652568DA
:1018400025F48025256063608368402B0EBFA2606D
:10185000A160E260C26D08BFE1603F239340B360C6
:10186000236843F016032360636943F080036361D8
:10187000036C1BB1236843F008032360236843F023
:1018800001032360002070BD80F83450022070BD39
:1018900070B50446856DFEF7FBFC94F83530022BDD
:1018A000064606D080236365002384F83430012087
:1018B00070BD23681A6822F016021A605A6922F075
:1018C00080025A61226C0AB9A26C1AB11A6822F01D
:1018D00008021A601A6822F001021A602368186868
:1018E00010F0010009D1E26D3F239340AB6001236A
:1018F00084F8340084F8353070BDFEF7C9FC801BD5
:101900000528EBD9202363650320002384F83430B5
:1019100084F8350070BD90F83530022B03D0802359
:101920004365012070470268052380F8353013684D
:1019300023F001031360002070472DE9F84F04469F
:101940000D469046FEF7A4FC94F83530022B8146F4
:1019500007D080236365002384F834300120BDE87C
:10196000F88F23681B68D90503D54FF4807363652E
:10197000F4E7E76D15BB2023A66D316803FA07F77E
:101980004FF0080A4FF0010B0F4202D1636DDA07E6
:1019900016D5636D002B48D0636DDB0745D5204617
:1019A000FFF776FFE26D30239340B3600120002300
:1019B00084F8343084F83500BDE8F88F1023DBE775
:1019C000B8F1FF3F13D0B8F1000F0AD120236365AF
:1019D000002384F83430012384F835300320BDE837
:1019E000F88FFEF755FCA0EB09008045EED3E36DC0
:1019F00031680AFA03F211421FBF606D40F0010026
:101A00006065B2600BFA03F211421FBF606D40F0D7
:101A100002006065B260042202FA03F319421FBF9C
:101A2000606D10436065B360AEE7E26D55B9302379
:101A30009340B360012384F8345084F8353000209B
:101A4000BDE8F88F10239340B360F8E7F7B50023A3
:101A500001935A4B856D1F68C36D2E6808229A400A
:101A6000164204460CD001680868400708D508688B
:101A700020F004000860AA60626D42F00102626515
:101A800001229A40164208D021684969090641BFDF
:101A9000AA60626D42F00202626504229A40164218
:101AA00008D021680968880741BFAA60626D42F0CA
:101AB0000402626510229A40164210D02368196809
:101AC00009070CD5AA601A68500335D51B6819039D
:101AD00001D4236C00E0A36C0BB120469847E16D64
:101AE00020228A40164238D023681868C60634D5AA
:101AF000AA6094F83520052A1A6825D122F016022A
:101B00001A605A6922F080025A61226C0AB9A26CEA
:101B10001AB11A6822F008021A603F238B40AB60AA
:101B2000002384F83430012384F83530236D0BB161
:101B30002046984703B0F0BD1A68D2055EBF1A6808
:101B400022F008021A60C4E7500328D51B68190365
:101B500032D4636C0BB120469847636D002BE9D0FB
:101B6000636DDA0719D50523226884F835301368C8
:101B700023F0010313604FF41653B7FBF3F7019BF7
:101B800001339F42019302D31368DB07F7D400238C
:101B900084F83430012384F83530E36CC7E71A68E1
:101BA00012F4807208D1196821F010011960012324
:101BB00084F8342084F83530E36BCBE70C00002048
:101BC00090F83430012B10B504461FD0012380F863
:101BD000343090F83500984213D1052905D8DFE854
:101BE00001F00306080A0C0EE26300200AE02264FA
:101BF000FBE76264F9E7A264F7E7E264F5E72265D0
:101C0000F3E71846002384F8343010BD022010BDDD
:101C100090F83420012A034626D093F8352001207D
:101C2000824283F834000AD1002206291AD8DFE85C
:101C300001F0040A0C0E10171200DA6300200022D3
:101C400083F8342070471A64F8E75A64F6E79A6418
:101C5000F4E7DA64F2E7DA631A645A649A64DA64DD
:101C60001A65EBE70120EAE70220704790F835009B
:101C70007047406D704700BF084910B50C6924F4E7
:101C800040740C610C6944F440740C610C6944F0BC
:101C900001040C610260436010BD00BF003C0240C3
:101CA000074B1A6922F440721A611A6942F40072F1
:101CB0001A611A6942F001021A610160704700BF9F
:101CC000003C0240074B1A6922F440721A611A69FB
:101CD00042F480721A611A6942F001021A610180AD
:101CE000704700BF003C02401A4BDA68D20606D5A6
:101CF0001949CA6942F01002CA611022DA60DA6832
:101D0000900606D51449CA6942F00802CA61202229
:101D1000DA60104BDA68510606D50F49CA6942F0FD
:101D20000402CA614022DA60DA68120606D50A495E
:101D3000CA6942F00202CA618022DA60054AD368A9
:101D40009B0706D50449CB6943F02003CB610223EE
:101D5000D3607047003C024030020020F8B51A4EB4
:101D6000357E012D0446084611462AD001253576D8
:101D7000164D2F6947F080772F612F6947F0007764
:101D80002F610327377070616CB92B6923F440739E
:101D90002B612B692B612B69D1B243F001032B61BD
:101DA00001700020F8BD012C03D191B2FFF78AFF2A
:101DB000F7E7022C02D1FFF773FFF2E7FFF75CFFB2
:101DC000EFE70220F8BD00BF30020020003C0240D7
:101DD0007047704738B52E4B2E4CDB6813F0F20F6E
:101DE0000DD02378012B35D14FF0FF33E568E36048
:101DF000FFF77AFF2846FFF7ECFF00232370244B00
:101E0000DA68D20713D50122DA602378934231D100
:101E10006368013B6360636813B3E068FFF7D8FF52
:101E2000E3680133E360E068217A00F083F9237806
:101E300003F0FF016BB9164B1A6922F0FF021A6119
:101E40001A6922F080721A611A6922F000721A610E
:101E5000217638BD2378022B0CBF25696569C7E759
:101E60004FF0FF35E560237000F0BAF92846FFF720
:101E7000AFFFDCE72378022B07D100F0B1F920692E
:101E8000FFF7A6FF00232370D1E76069F8E700BFE2
:101E9000003C024030020020064B1A69002ABFBFF6
:101EA000054A5A6002F188325A60BABF1869C00FF9
:101EB00000207047003C024023016745034A136934
:101EC00043F0004313610020704700BF003C024014
:101ED000064B5A69D20741BF054A9A6002F1443263
:101EE00000204CBF9A600120704700BF003C0240B8
:101EF0003B2A1908034A536943F001035361002048
:101F0000704700BF003C0240014BD869704700BFDA
:101F100030020020F8B5124B124C00220546DA615F
:101F2000FEF7B6F926460746E368DA030CD4E36801
:101F3000DB0744BF0123E360F06810F0F20002D039
:101F4000FFF7D2FE0120F8BD691CEDD00DB90320CA
:101F5000F8BDFEF79DF9C01B8542E5D2F7E700BF4B
:101F600030020020003C02402DE9F041204D98460F
:101F70002B7E012B07460E46144635D001234CF22A
:101F800050302B76FFF7C6FFB0B9CFB9194B1A699D
:101F900022F440721A611A691A611A69E4B242F0B5
:101FA00001021A6134704CF25030FFF7B3FF114A4E
:101FB000136923F00103136100232B76BDE8F08140
:101FC000012F04D1A1B23046FFF77CFEEBE7022FD0
:101FD00004D121463046FFF763FEE4E7224643463C
:101FE0003046FFF749FEDEE70220BDE8F08100BF82
:101FF00030020020003C0240044A137843F0020300
:1020000013704CF25030FFF785BF00BF143C024004
:10201000074B1A6922F440721A611A6942F00402ED
:102020001A611A6942F4803242EA0020186170474E
:10203000003C024070B5294E337E012B04464AD045
:1020400023680120DD0730760ED56368A5688342DA
:102050004CF2503035D1FFF75DFF28B9204A138884
:102060009BB223EA050515802368990708D54CF231
:1020700050302569FFF74EFF10B91A4BEDB21D70B5
:1020800023685A070DD54CF25030257EFFF742FFEA
:1020900038B9154A137825F01F0503F01F032B43A9
:1020A000137023681B0709D50F4B227D197801F0A7
:1020B000F301197019780A431A700020002333764F
:1020C00070BDFFF727FF0028CED1054B1A881543B6
:1020D000ADB21D80C8E7022070BD00BF30020020F5
:1020E000163C0240153C0240143C02400F230360A2
:1020F0000C4B0D4A1B889BB283601378DBB2CC2B50
:1021000004D01378552B0CBF5523AA230361074B2A
:102110005B6923F01F030376054B1B7803F00C0368
:1021200043617047163C0240153C0240003C0240AF
:10213000143C024039B101291CD002290CBF4FF4D4
:1021400000714FF440710D4B1A6922F440721A610C
:102150001A69114319611A6922F0F8021A611A69A1
:1021600042F0020242EAC00018611A6942F4803269
:102170001A6170474FF48071E5E700BF003C0240F0
:10218000154B1A7E012A10B523D0144A1169012477
:1021900041F080711C761161116941F0007111618B
:1021A000F321D16002680169A24208D102221A70AB
:1021B00042681A61C8B2FFF72BFF002010BDC26849
:1021C00080681C70C9B25A60D8601972FFF7B2FFFC
:1021D000F3E7022010BD00BF30020020003C0240A7
:1021E000144B1A6891050FD51A6822F400721A6010
:1021F0001A6842F400621A601A6822F400621A60D7
:102200001A6842F400721A600A4B1A6852050FD518
:102210001A6822F480621A601A6842F480521A60C6
:102220001A6822F480521A601A6842F480621A60B6
:10223000704700BF003C02402DE9F843234E337E37
:10224000012B044688463FD001234CF250303376B0
:10225000FFF760FE0546A8B94FF0FF33C8F800301D
:102260002368012B13D1207CFFF7D2FE4CF25030B3
:10227000FFF750FE164A136923F004030546136165
:10228000FFF7AEFF002333762846BDE8F883A76842
:10229000DFF83C90E368A26813449F42F0D2217CAF
:1022A0003846FFF747FF4CF25030FFF733FED9F8BE
:1022B000103023F0FA03C9F8103018B1C8F80070D4
:1022C0000546DDE70137E5E70225DDE730020020BE
:1022D000003C02402DE9F04F85B00B68DFF8AC817F
:1022E000684ADFF8AC91019300234FF0010E019C86
:1022F0000EFA03FE0EEA0406B64540F0AE804C68C6
:1023000024F01007022F16D14FEAD30A00EB8A0AF5
:1023100003F0070BDAF820504FEA8B0B4FF00F0C4D
:102320000CFA0BFC25EA0C0C0D6905FA0BF545EAD5
:102330000C05CAF820504FEA430A0325D0F800B034
:1023400005FA0AF5ED4304F0030C0BEA050B0CFA51
:102350000AFC013F4CEA0B0C012FC0F800C011D859
:10236000876807EA050BCF6807FA0AFC4CEA0B07F7
:102370008760476827EA0E0EC4F300179F4047EABC
:102380000E074760C7683D408F6807FA0AF73D436C
:10239000C560E50061D54FF0000BCDF80CB0D8F862
:1023A0004470394D47F48047C8F84470D8F84470F9
:1023B00007F480470397039F23F0030707F1804743
:1023C00007F59C3703F0030CD7F808A04FEA8C0CF4
:1023D0004FF00F0E0EFA0CFEA8422AEA0E0E43D062
:1023E00005F58065A84241D005F58065A8423FD03B
:1023F00005F58065A8423DD005F58065A8423BD033
:1024000048453BD005F50065A84239D005F5806503
:10241000A84214BF0825072505FA0CF545EA0E0564
:10242000BD601568F74314F4803F0CBF3D40354351
:102430001560556814F4003F0CBF3D4035435560AE
:10244000956814F4801F0CBF3D4035439560D568F6
:10245000A40254BF3D403543D5600133102B7FF4B7
:1024600044AF05B0BDE8F08F5D46D5E70125D3E761
:102470000225D1E70325CFE70425CDE70525CBE7E6
:102480000625C9E7003C0140000002400038024038
:10249000001402402DE9F04F464EDFF820A1DFF88E
:1024A00020B100244FF0010909FA04F232EA0103D5
:1024B0006CD1032304FA09F5076803FA05F5ED4327
:1024C00024FA03FC2F4000EB8C0C076004F0070E8D
:1024D000DCF820800F274FEA8E0E07FA0EFE28EA5E
:1024E0000E0ECCF820E0D0F808E005EA0E0EC0F899
:1024F00008E0D0F804E0D24302EA0E0EC0F804E08F
:10250000D0F80CE005EA0E05C56024F0030505F1DE
:10251000804505F59C3504EA030E274BD5F808C025
:102520004FEA8E0E07FA0EF798420CEA070C32D0EB
:1025300003F58063984230D003F5806398422ED033
:1025400003F5806398422CD003F5806398422AD02B
:1025500003F58063984228D0504528D058450CBFD9
:102560000723082303FA0EF39C450FD1AB6823EA37
:102570000707AF60336813403360736813407360BC
:10258000B3681340B360F3681A40F2600134102C52
:1025900088D1BDE8F08F0023E4E74B46E2E7022351
:1025A000E0E70323DEE70423DCE70523DAE706237D
:1025B000D8E700BF003C0140000002400018024084
:1025C000001C02400369194214BF0120002070471B
:1025D0000AB1816170470904FBE7436959404161D1
:1025E000704782B04FF480330193019B0B430193FA
:1025F000019BC361C161019BC361C3690193C06950
:1026000080F48030C0F3004002B07047704708B5D6
:10261000034B5969014202D05861FFF7F7FF08BD2B
:10262000003C0140002070472DE9F341044618B9F1
:10263000012002B0BDE8F0810368DD0710D42368F3
:10264000980758D423681A0700F19A8023685B071B
:1026500000F1B880A269002A40F019810020E8E763
:10266000A64B9A6802F00C02042A07D09A6802F07E
:102670000C02082A0AD15B68590207D59F4B1B68D8
:102680009A03DCD56368002BD9D1D1E763689B4DF1
:10269000B3F5803F11D12B6843F480332B60FDF7F5
:1026A000F7FD964D06462B689B03C8D4FDF7F0FD59
:1026B000801B6428F7D90320BBE7B3F5A02F04D112
:1026C0002B6843F480232B60E5E72A6822F48032EC
:1026D0002A602A6822F480222A60002BDFD1FDF7CD
:1026E000D7FD06462B689F03A9D5FDF7D1FD801BBA
:1026F0006428F7D9DFE7814B9A6812F00C0F07D0F6
:102700009A6802F00C02082A11D15B685E020ED4AE
:102710007A4B1A68950702D5E268012A88D11A68AF
:10272000216922F0F80242EAC1021A608AE7E268EF
:10273000734BB2B101221A60FDF7AAFD6F4D064638
:102740002B68980707D52B68226923F0F80343EA22
:10275000C2032B6076E7FDF79BFD801B0228EFD9B3
:10276000A9E71A60FDF794FD644D06462B689907AA
:102770007FF568AFFDF78CFD801B0228F6D99AE73C
:102780006269604B7AB101221A60FDF781FD5B4DF1
:1027900006466B6F9F073FF559AFFDF779FD801B2C
:1027A0000228F6D987E71A60FDF772FD534D0646F9
:1027B0006B6F98077FF54AAFFDF76AFD801B022813
:1027C000F6D978E74D4B1A6C12F0805228D101925D
:1027D0001A6C42F080521A641B6C03F08053019310
:1027E000019B0126484D2B68D9051BD5A368434D95
:1027F000012B27D12B6F43F001032B67FDF748FD19
:102800003E4D074641F288382B6F9B0739D5002E85
:102810003FF420AF394A136C23F08053136419E757
:102820000026DFE72B6843F480732B60FDF730FD53
:1028300007462B68DA05D9D4FDF72AFDC01B02280C
:10284000F7D938E7052B04D12B6F43F004032B672E
:10285000D0E72A6F22F001022A672A6F22F00402D1
:102860002A67002BCAD1FDF713FD41F288380746CD
:102870002B6F9807CBD5FDF70BFDC01B4045F7D953
:1028800019E7FDF705FDC01B4045BDD913E71B4DFA
:10289000AB6803F00C03082B3FF4CAAE1B4E0023B9
:1028A000022A336034D1FDF7F3FC07462B68990107
:1028B0001ED4226AE3691343626A43EA8213E26A1E
:1028C00043EA0263A26A0D4C5208013A43EA02430A
:1028D0006B6001233360FDF7DBFC054623689A013A
:1028E0003FF5BCAEFDF7D4FC401B0228F6D9E2E66A
:1028F000FDF7CEFCC01B0228D8D9DCE60038024028
:1029000000004742800E474200700040600047428E
:10291000FDF7BEFC04462B689B017FF59FAEFDF7DB
:10292000B7FC001B0228F6D9C5E670B50D4688B085
:102930001646204CF0B90190236B43F0010323634A
:10294000236B059003F001030193019B07904FF463
:10295000807303930223049303A903231648069369
:10296000FFF7B8FCA16821F0EC6131432943A16075
:1029700008B070BD00230293226B104842F004029D
:102980002263226B059302F004020292029A0793DB
:102990004FF4007203920222049203A903220692CA
:1029A000FFF798FCA36845EAC60123F078450D437C
:1029B000A560DDE700380240000002400008024048
:1029C000014B01221A6070474C004742014B002224
:1029D0001A6070474C004742134908B58B6803F0F2
:1029E0000C03042B03D0082B03D0104808BD10485B
:1029F00008BD4A684B68496813F4800314BF0C484B
:102A00000A48C1F3881118BF002302F03F02A1FB5E
:102A1000000116F0E5F8044B5B68C3F30143013392
:102A20005B00B0FBF3F008BD003802400024F40066
:102A3000809698002DE9F0410D46044610B901201A
:102A4000BDE8F081444B1A6802F00F028A4228D395
:102A500021688F072DD4C80740D43F4B1A6802F075
:102A60000F02954266D3226851076CD4130707D52D
:102A70003A4A2169936823F4604343EAC1039360AF
:102A8000FFF7AAFF354B364A9B68C3F30313D35CA9
:102A9000D840344B18600020FDF7B2FB0020BDE8A1
:102AA000F081CAB21A701B6803F00F039942C6D1B5
:102AB000CEE72A4B11F0040F1EBF9A6842F4E05291
:102AC0009A600E0742BF9A6842F460429A609A6820
:102AD000A06822F0F00202439A60BCE762681F4BD4
:102AE000012A1DD11B6813F4003FA8D01B4EB36808
:102AF00023F003031343B360FDF7CAFB41F28838A8
:102B00000746B368626803F00C03B3EB820FA4D0EE
:102B1000FDF7BEFBC01B4045F3D90320BDE8F081A3
:102B2000911E01291B6802D813F0007FDDE713F026
:102B3000020FDAE7EAB21A701B6803F00F039D4236
:102B40007FF47DAF8FE70549E0688B6823F4E0539D
:102B500003438B608AE700BF003C0240003802401C
:102B600068CB01080C000020014B1868704700BFBB
:102B70000C000020044B054A9B68C3F38223D35CFE
:102B8000034A1068D84070470038024078CB0108EB
:102B90000C000020044B054A9B68C3F34233D35C0E
:102BA000034A1068D84070470038024078CB0108CB
:102BB0000C0000200F230360244B1A68520337D502
:102BC0004FF4A02242601B6813F0010318BF0123D9
:102BD000C3601E4B1A68C2F3C40202611A6F510728
:102BE0002DD5052282605B6F13F0010318BF01230E
:102BF0004361164B1A68D2014CBF02220122826146
:102C00005A6802F48002C2615A6802F03F0202620E
:102C10005A68C2F3881242625A6802F4403202F5DE
:102C20008032D20B82625B68C3F30363C362704776
:102C30001A6812F4803218BF4FF48032C2E71A6F5C
:102C400012F0010218BF0122CCE700BF0038024099
:102C50000F2303600B4B9A6802F0030242609A68EC
:102C600002F0F00282609A6802F4E052C2609B684F
:102C7000DB0803F4E0530361034B1B6803F00F030D
:102C80000B60704700380240003C0240704708B5B6
:102C9000044BDB681B0604D5FFF7F8FF024B8022CC
:102CA0001A7008BD003802400E38024082B000237E
:102CB0000093114B45F6C0521B68B3FBF2F264233C
:102CC00053430193019A531E0193036882B9426DE5
:102CD00042F0200242651A6822F040021A605A68E7
:102CE00022F0E0025A60DB680093009B02B070475C
:102CF0009A689207E6D5EEE70C00002003685A6850
:102D000022F0E0025A601A6822F040021A6070470E
:102D10002DE9F041069E0446884617461D46226866
:102D2000936838EA03030CBF012300239F4202D1BA
:102D30000020BDE8F0816B1CF2D055BB23685A68B7
:102D400022F0E0025A606268B2F5827F0AD1A2687E
:102D5000B2F5004F02D0B2F5806F03D11A6822F0AD
:102D600040021A60A26AB2F5005F09D11A6822F423
:102D700000521204120C1A601A6842F400521A60CF
:102D8000012384F85130002384F850300320BDE83B
:102D9000F081FDF77DFA801B8542C0D8CEE713B5E0
:102DA0000B460092802100220446FFF7B1FF20B1BC
:102DB000636D43F020036365032002B010BD7047CC
:102DC00010B50446002836D00023836290F85130B5
:102DD00003F0FF021BB980F8502012F021FB21689C
:102DE000A068A269022384F851300B6823F04003E5
:102DF0000B6063680343E068034320690343606931
:102E00000343E0690343206A0343A06A034302F4D7
:102E1000007003430B60120C636A02F004021A4351
:102E20004A60CB6923F40063CB6100200123606515
:102E300084F8513010BD012010BD704710B5044614
:102E400080B10268022380F85130136823F04003F8
:102E5000136012F01BFB0020606584F8500084F8BA
:102E6000510010BD012010BD2DE9FF411E4690F814
:102E70005030012B04460D46904600F09C80012303
:102E800080F85030FDF704FA074694F85100C0B2BC
:102E9000012840F08E80002D4ED0B8F1000F4BD0AD
:102EA000032384F8513000236365A363A4F83680BC
:102EB000A387E38763642364A3682563B3F5004FA6
:102EC0002368A4F8348002BF1A6842F480421A6072
:102ED0001A6852065EBF1A6842F040021A60E26841
:102EE000B2F5006F626838D11AB1E28E92B2012A4F
:102EF00006D135F8022BDA60E38E013B9BB2E38604
:102F0000E38E9BB293B900973346012202212046FB
:102F1000FFF7FEFE78B93A4631462046FFF73FFFFD
:102F2000002838D020236365012005E023689A68D3
:102F30009007DED44EB90320012384F851300023DA
:102F400084F8503004B0BDE8F081711CD8D0FDF792
:102F50009FF9C01B8642D3D8EDE71AB1E28E92B238
:102F6000012A06D115F8012B1A73E38E013B9BB29F
:102F7000E386E38E9BB2002BC5D023689A68920744
:102F8000F0D4002ED7D0731CF3D0FDF781F9C01B0D
:102F90008642EED8CFE7A36833B903932368DA6893
:102FA00003929B680393039B606D003018BF012060
:102FB000C2E70220C0E70220C4E72DE9F0439946AA
:102FC00090F8503085B0012B04460D4616460C9FF4
:102FD00000F0ED80012380F85030FDF759F994F8A6
:102FE00051306168DBB2012B80460AD0B1F5827F97
:102FF00040F0DB80A268002A40F0D780042B40F02C
:10300000D480002D4ED0002E4CD0B9F1000F49D005
:1030100094F85130A663012B04BF052384F8513086
:1030200000236365236463642368A4F83E90A4F8D6
:1030300036901A68A4F83C90500658BF1A68256369
:1030400058BF42F04002A4F8349058BF1A60E268BA
:10305000B2F5006F5DD119B1E28E92B2012A06D1AC
:1030600035F8022BDA60E38E013B9BB2E3864FF02A
:103070000109E38E9BB2BBB9E38F9BB2A3B9CDF834
:1030800000803B46012202212046FFF741FE002836
:1030900035D1424639462046FFF781FE002879D0D7
:1030A0002023636501202BE0B9F1000F0FD0E38EE0
:1030B0009BB263B123689A68910708D535F8022B53
:1030C000DA60E38E013B9BB2E3864FF00009E38FA9
:1030D0009BB263B123689A68D20708D5DB6826F8EB
:1030E000023BE38F013B9BB2E3874FF00109781C61
:1030F000BFD0FDF7CDF8A0EB08008742B9D8032078
:10310000012384F85130002384F8503005B0BDE825
:10311000F08319B1E28E92B2012A06D115F8012B83
:103120001A73E38E013B9BB2E3864FF00109E38EF5
:103130009BB21BB9E38F9BB2002BA0D0B9F1000F5B
:103140000FD0E38E9BB263B123689A68910708D5CC
:103150002A781A73E38E013B9BB2E38601354FF068
:103160000009E38F9BB263B123689A68D20708D540
:10317000DB683370E38F013B9BB2E38701364FF08E
:1031800001097B1CD3D0FDF783F8A0EB0800874230
:10319000CDD8B4E7A368002BB2D123680390DA68D6
:1031A00003929B680393039BAAE70220A8E70220EF
:1031B000ACE72DE9F3411E464368B3F5827F044630
:1031C0000D4690460CD1836853B9042380F85130E2
:1031D000134600960A46FFF7F0FE02B0BDE8F08104
:1031E00094F85030012B00F08180012384F8503096
:1031F000FDF74EF8074694F85100C0B2012873D18C
:10320000002D58D0B8F1000F55D0042384F8513068
:10321000002363652363A4F83E80A386E3862364CA
:103220006364A368A563B3F5004F2368A4F83C80EA
:1032300002BF1A6822F480421A601A6852065EBF02
:103240001A6842F040021A60E368CBB1E38F9BB288
:10325000D3B123689A68D2073CD5DB6825F8023BD6
:10326000E38F013B9BB2E387F0E723689A68D007BE
:103270001FD51B7B05F8013BE38F013B9BB2E38726
:10328000E38F9BB2002BF0D16368B3F5827F0BD143
:10329000A368B3F5004F02D0B3F5806F04D1226864
:1032A000136823F040031360606D003018BF0120E5
:1032B00001E03EB90320012384F85130002384F853
:1032C00050308AE7711CDBD0FCF7E2FFC01B86425E
:1032D000D6D8EFE7002EEDD0731CB7D0FCF7D8FF9F
:1032E000C01B8642B2D8E5E70220E4E7022074E77B
:1032F000034690F8500001283FD0012083F8500089
:10330000002932D0002A30D093F85100012830D162
:10331000032083F85100002058659A86DA86DA681F
:10332000196398639887D887186472B1144A9968AA
:103330005A64B1F5004F1A6809D1116841F480410F
:103340001160516841F0A00106E00E4AEFE7002944
:10335000F7D1516841F080015160106810F04000D1
:1033600009D1116841F040011160002283F850201A
:1033700070470220F9E70020F7E70220704700BFFE
:10338000493900082139000830B5044690F850004A
:10339000012846D0012084F8500094F85100C0B2B2
:1033A000012808D06568B5F5827F34D1A568002D65
:1033B00031D104282FD100292FD0002A2DD0002B65
:1033C0002BD094F85100A386012804BF052084F86F
:1033D000510000206065A387E386E387E3682163EB
:1033E000A263A3B1104B2364104B636423685A6833
:1033F00042F0E0025A60186810F040000FD11A68DD
:1034000042F040021A60002384F8503030BD084B6F
:103410002364084BE9E70220F5E70120F3E70020E9
:10342000F1E7022030BD00BF353B0008FF3A00083D
:10343000D13A0008993A00081346826870B40446ED
:103440000D4652B94668B6F5827F06D1042280F84F
:10345000512070BC0A46FFF797BF94F8501001291D
:1034600038D094F851000121C0B2884284F850103D
:103470002CD125B31BB3042184F8511000216165C0
:10348000A387E387E368A5632163A186E18661647E
:10349000D3B1114B23642368B2F5004F02BF1A6801
:1034A00022F480421A605A6842F060025A6018683A
:1034B00010F040000CD11A6842F040021A6000235C
:1034C00084F8503070BC7047044BE3E70220F6E705
:1034D0000020F4E70220F5E7E1390008C3390008CD
:1034E00090F85030012B10B5044646D0012380F8E7
:1034F000503090F85100C0B298423CD1002936D0EB
:10350000002A34D0032384F8513000236365A36379
:10351000E2866364E3872364A387A368A2862268A4
:10352000A06C2163B3F5004F02BF136843F48043DE
:103530001360134B0364134BC363134BC364002327
:103540000365E38E0C329BB2FEF764F923681A68B8
:1035500052065EBF1A6842F040021A605A6842F092
:1035600020025A605A6842F002025A60002000238A
:1035700084F8503010BD0220F9E7022010BD00BFD2
:103580007D3800088D3B00086B3B000838B50446C9
:1035900090F85000012867D0012084F8500094F87A
:1035A0005100C0B2012808D06568B5F5827F57D1B7
:1035B000A568002D54D1042852D1002952D0002AE8
:1035C00050D0002B4ED094F85100A386012804BFA0
:1035D000052084F8510000206065E386E387A38717
:1035E00094F851302064042B6064E06C0CBF1F4BD6
:1035F0001F4B2163A2630BBF036403641D4B1E4B6F
:10360000C3631E4BC3642168E38F00259BB20C315A
:103610000565FEF7FFF82268A06C5368216B43F044
:1036200001035360E38E05649BB20C32C563C5642D
:103630000565FEF7EFF823681A6852065EBF1A6840
:1036400042F040021A605A6842F020025A605A68FA
:1036500042F002025A600020002384F8503038BD46
:103660000220F9E70120F7E7022038BD8938000879
:1036700095380008EF3B00083F3C00086B3B000812
:103680001346826870B504460D465AB94668B6F5C9
:10369000827F07D1042280F85120BDE870400A469D
:1036A000FFF774BF94F85010012946D094F85100E8
:1036B0000121C0B2884284F850103CD1002D36D090
:1036C000002B34D0042184F851100021616521645D
:1036D000E3876164E186A1862168A387B2F5004F84
:1036E00008BF0B68E06CA56304BF23F480430B6044
:1036F000134B0364134BC363134BC3640023036571
:10370000E38F2A469BB20C31FEF784F823681A68CF
:1037100052065EBF1A6842F040021A605A6842F0D0
:1037200020025A605A6842F001025A6000200023C9
:1037300084F8503070BD0220F9E7022070BD00BF50
:1037400089380008EF3B00086B3B00081FB52C4B85
:1037500045F6C0521B68B3FBF2F264235343019356
:1037600003685A68110644BF264A42645A685206E2
:1037700044BF254A02645A6822F020025A605A68FF
:103780000446900702D45B68D90721D5A06C80B1AC
:1037900000230365FEF77CF823685A6822F00202D2
:1037A0005A60019A511E019132BB636D43F02003B0
:1037B0006365E06C60B100230365FEF769F8236878
:1037C0001A6822F040021A605A6822F001025A6018
:1037D00000202368E087E08660650290DA68029244
:1037E0009A680292029A03909B680393039B0123B9
:1037F00084F8513004B010BD9A689207D1D5D8E74B
:103800000C000020FD2C0008AD2C000890F8503072
:10381000012B1FBF0268536823F0030353601DBFD1
:10382000002380F8503018460220704790F850303E
:10383000012B1FBF0268536843F0030353601DBF91
:10384000002380F8503018460220704710B5044617
:10385000806C08B1FEF71CF8E06C08B1FEF718F8B0
:103860002268536823F003035360012384F8513026
:10387000002010BD704770477047704708B5806BD7
:10388000FFF7FBFF08BD704708B5806BFFF7FBFF34
:1038900008BD704708B5806BFFF7FBFF08BD704798
:1038A00013B51E4B45F6C0521B68B3FBF2F26423FE
:1038B000534304460093FCF7EBFC024600994B1E71
:1038C0000093236819BB616D41F02001616559685F
:1038D00021F0A001596020466421FFF760FA18B179
:1038E000636D43F020036365A36833B901932368D4
:1038F000DA6801929B680193019B012384F851309F
:10390000636D20463BB1FFF7CAFF02B010BD996856
:103910008907D3D5DBE7FFF7ADFFF6E70C00002002
:1039200010B4026B0168541C046312780A73C28ECF
:10393000013A92B2C286C38E9BB213B95DF8044BB2
:10394000AEE75DF8044B7047026B016810B432F8C3
:10395000024BCC600263C28E013A92B2C286C38E21
:103960009BB213B95DF8044B9AE75DF8044B7047BE
:10397000036807B55A6822F060025A604268B2F5DF
:10398000827F826809D1B2F5004F02D0B2F5806F14
:1039900003D1196821F0400119602AB90192DA684F
:1039A00001929B680193019B012380F85130436D84
:1039B00023B9FFF760FF03B05DF804FBFFF76FFF6B
:1039C000F9E7826B511C81630168097B1170C28F1A
:1039D000013A92B2C287C38F9BB203B9C8E770475E
:1039E0000268D168826B22F8021B8263C28F013A9F
:1039F00092B2C287C38F9BB203B9B9E7704713B5C0
:103A0000244B04461B6845F6C052B3FBF2F2642314
:103A100053430093FCF73CFC2368596821F02001D4
:103A2000024659600099481E009021BB636D43F027
:103A30002003636564212046FFF7B1F918B1636D77
:103A400043F020036365A36833B901932368DA6800
:103A500001929B680193019B636D9BB994F851306F
:103A6000042B4FF0010384F85130204607D1FFF7B3
:103A700002FF02B010BD99688907D3D5DAE7FFF7D6
:103A8000FBFEF6E7012384F851302046FFF707FFDD
:103A9000EFE700BF0C00002010B4026B0168541C5B
:103AA000046312780A73C28E013A92B2C286C28E41
:103AB00092B252B901684A6822F080024A60C38F0C
:103AC0009BB213B95DF8044B99E75DF8044B70475E
:103AD000826B511C81630168097B1170C28F013AAE
:103AE00092B2C287C28F92B242B901684A6822F08C
:103AF00060024A60C38E9BB203B980E77047026BD5
:103B0000016810B432F8024BCC600263C28E013AF5
:103B100092B2C286C28E92B24AB94A6822F080023C
:103B20004A60C38F9BB213B95DF8044B67E75DF839
:103B3000044B70470168826B10B4CC6822F8024BCA
:103B40008263C28F013A92B2C287C28F92B24AB9DF
:103B50004A6822F040024A60C38E9BB213B95DF8F6
:103B6000044B4CE75DF8044B7047806B026808B566
:103B7000536823F003035360436D43F01003436520
:103B8000012380F85130FFF78AFE08BD37B505469E
:103B9000846BFCF77DFB2B681B68DB05024622D497
:103BA00021684B6823F002034B6020466421FFF735
:103BB000F6F818B1636D43F020036365A36833B969
:103BC00001932368DA6801929B680193019B0023AB
:103BD000E386012384F85130636D23B12046FFF75B
:103BE0005EFE03B030BD2046FFF744FEF9E708B59E
:103BF0000346806B1B681B68DB051DD403685A688D
:103C000022F003025A604268B2F5827F0AD18268CC
:103C1000B2F5004F02D0B2F5806F03D11A6822F0DE
:103C200040021A600023C387012380F85130436D9E
:103C300013B1FFF734FE08BDFFF71DFE08BD38B510
:103C40000546846BFCF724FB2B681B68DB050246EA
:103C500019D464212046FFF7A2F818B1636D43F030
:103C6000200363652268536823F003035360002335
:103C7000E386E387012384F85130636D1BB120464E
:103C8000FFF70DFE38BD2046FFF7F6FD38BD03688F
:103C900030B559689A6802F04105012D85B0044697
:103CA00005D14D0603D5036C984705B030BD950787
:103CB00004D5080602D5636C2046F5E712F4B07F00
:103CC000F3D08D06F1D550060FD594F85100032896
:103CD0004FF0000541D0606D40F004006065009534
:103CE000D868009098680090009895060CD5606D93
:103CF00040F001006065002002909868029018680A
:103D000020F0400018600298D00508D5626D42F09E
:103D100008026265002203929A680392039A626D18
:103D2000002AC2D05A6822F0E0025A60012284F8C8
:103D300051208A0718D05A68E06C22F003025A60BA
:103D400018B10B4B0365FDF7E6FDA06C0028ACD065
:103D5000074B0365FDF7DFFDA7E70195DA680192E0
:103D60009B680193019BA0E72046FFF798FD9CE725
:103D7000753D000808B5806B0023C387C386FFF735
:103D80008EFD08BD7047036837B55A68110644BFF9
:103D9000354A42645A68520644BF344A02645A683B
:103DA0000446806C22F020025A6028B15A6812F052
:103DB000020218BF2E4A0265E16C29B15A6812F05E
:103DC000010218BF2B4A0A655A68950714D55B682B
:103DD000D90711D530B1FDF79EFD00283ED0A36C68
:103DE00000221A650125E06C38B1FDF794FD00282A
:103DF00036D0E36C00221A65012523685B689A07B8
:103E000008D5A06C30B1FDF786FD00282AD0A36C40
:103E100000221A6523685B68DB0707D5E06C28B1D0
:103E2000FDF779FDB8B1E36C00221A659DB100235E
:103E30002268E387E38663650093D1680091916807
:103E400000910099019393680193019B84F851506C
:103E50002046FFF797FF002003B030BD0546C2E7BC
:103E60000546CAE70546D5E7FD2C0008AD2C00083D
:103E7000C73E0008793E000807B5806B0268C16C38
:103E8000136823F04003136000230B65516821F091
:103E900001015160816C09B1096D89B9C387C3867D
:103EA00043650093D1680091916800910099019356
:103EB00093680193019B012380F85130FFF762FF63
:103EC00003B05DF804FB07B5184B806B1B6845F623
:103ED000C052B3FBF2F2642353430093836C00227D
:103EE0001A6503685A6822F002025A60009A511E4D
:103EF0000091BAB9426D42F020024265C26C0AB12B
:103F0000126D62B90022C287C286426501929B6827
:103F10000193019B012380F85130FFF733FF03B079
:103F20005DF804FB9A689207E0D5E7E70C000020F3
:103F300090F851007047406D704700BF036A23F04E
:103F400001030362036A426870B584690D6824F056
:103F5000730425438C6823F0020323430C4CA042D6
:103F600009D004F58064A04205D042604A688561AA
:103F70004263036270BDCC688E6923F0080323435B
:103F80004C6922F44072344323F004032243ECE7EB
:103F900000000140036A23F480730362036A4268ED
:103FA00070B5C4690D6824F0730425438C6823F44C
:103FB000007343EA04230E4CA04209D004F5806448
:103FC000A04205D042604A68C561C263036270BD09
:103FD000CC688E6923F4006343EA04234C6922F41D
:103FE0004052344323F4806342EA0412EAE700BFFC
:103FF00000000140036A23F48053036230B5046A71
:104000004368C2690D6822F4E64242EA05228D68DF
:1040100024F4005444EA0534094DA84209D005F5BA
:104020008065A84205D043604B68C26103640462A6
:1040300030BD4D6923F4804343EA8513F3E700BFA5
:1040400000000140036848689A6822F0700230B5A9
:1040500002430C6822F00702224350289A6021D0C4
:1040600002D8402810D030BD60282DD070283DD116
:10407000CA688C6898680969224320F47F4042EA44
:10408000012202439A6030BD186A1A6A096922F057
:1040900001021A629A6922F0F00242EA01129A6160
:1040A000186230BD88680D69196A1C6A24F0010421
:1040B0001C629A6921F00A0122F0F00242EA05121C
:1040C00001439A61196230BD186A8C680D6920F04D
:1040D0001000186299691A6A21F4704122F0A00256
:1040E00041EA053142EA041299611A6230BD704713
:1040F0007047022310B580F839300368196A41F21D
:1041000011121142044608D1196A40F24442114288
:1041100002BF1A6822F001021A60204612F06CF801
:10412000002084F8390084F8380010BD02680223AA
:1041300080F83930136843F001031360012380F8DD
:10414000393000207047022380F839300368196A3B
:1041500041F21112114208D1196A40F2444211424F
:1041600002BF1A6822F001021A60012380F8393078
:10417000002070470368DA6842F00102DA601A68CA
:1041800042F001021A60002070470368DA6822F0EA
:104190000102DA60196A41F21112114208D1196A5A
:1041A00040F24442114202BF1A6822F001021A6032
:1041B0000020704710B5044690F83900C0B20228BC
:1041C00013461CD094F83900C0B2012804D101B9BB
:1041D000AAB9022284F83920E069094AC263094A6F
:1041E000C26422682C32FDF715FB2368DA6842F4BA
:1041F0008072DA601A6842F001021A60002010BD75
:10420000D34C0008B94E00080368DA6822F48072C3
:10421000DA60196A41F21112114208D1196A40F2AA
:104220004442114202BF1A6822F001021A600123BF
:1042300080F839300020704770477047022310B56E
:1042400080F839300368196A41F2111211420446AC
:1042500008D1196A40F24442114202BF1A6822F0A2
:1042600001021A602046FFF7E8FF002084F83900B9
:1042700084F8380010BD70477047022310B580F8ED
:1042800039300368196A41F211121142044608D10B
:10429000196A40F24442114202BF1A6822F0010238
:1042A0001A60204611F082FF002084F8390084F85B
:1042B000380010BD70477047022310B580F83930C0
:1042C0000368196A41F211121142044608D1196AB1
:1042D00040F24442114202BF1A6822F001021A6001
:1042E0002046FFF7E8FF002084F8390084F8380002
:1042F00010BD70477047022310B580F8393003684D
:10430000196A41F211121142044608D1196A40F2A9
:104310004442114202BF1A6822F001021A6020468C
:10432000FFF7E8FF002084F8390084F8380010BD5A
:1043300003681A6A22F001021A621A6A42F0010244
:104340001A621A6A22F010021A621A6A42F0100205
:104350001A62064A934203D002F58062934203D167
:104360005A6C42F400425A64002070470000014039
:1043700003681A6A22F001021A621A6A1A621A6A39
:1043800022F010021A621A6A1A62124A934203D089
:1043900002F5806293420DD1196A41F21112114265
:1043A00008D1196A40F24442114202BF5A6C22F409
:1043B00000425A64196A41F21112114208D1196A75
:1043C00040F24442114203D11A6822F001021A60FD
:1043D00000207047000001400368DA6842F00202E2
:1043E000DA60DA6842F00402DA601A6A22F0010246
:1043F0001A621A6A42F001021A621A6A22F0100264
:104400001A621A6A42F010021A62064A934203D0F4
:1044100002F58062934203D15A6C42F400425A641E
:1044200000207047000001400368DA6822F00202B1
:10443000DA60DA6822F00402DA601A6A22F0010215
:104440001A621A6A1A621A6A22F010021A621A6A48
:104450001A62124A934203D002F5806293420DD150
:10446000196A41F21112114208D1196A40F244420C
:10447000114202BF5A6C22F400425A64196A41F296
:104480001112114208D1196A40F24442114203D17B
:104490001A6822F001021A600020704700000140F3
:1044A00070477047022310B580F839300368196AE5
:1044B00041F211121142044608D1196A40F24442F5
:1044C000114202BF1A6822F001021A60204611F060
:1044D00049FE002084F8390084F8380010BD0368D4
:1044E00089B1042907D01A6A22F001021A621A6AF5
:1044F00042F001021A621A6A22F010021A621A6A63
:1045000042F0100206E01A6A22F001021A621A6AE8
:1045100042F001021A621A6842F001021A60002099
:104520007047036859B1042905D01A6A22F00102C4
:104530001A621A6A1A621A6A22F0100202E01A6AF1
:1045400022F001021A621A6A1A62196A41F2111201
:10455000114208D1196A40F24442114202BF1A685E
:1045600022F001021A60002070470368B1B10429EB
:1045700026D01A6A22F001021A621A6A42F0010277
:104580001A621A6A22F010021A621A6A42F01002C3
:104590001A62DA6842F00202DA6019E01A6A22F05E
:1045A00001021A621A6A42F001021A62DA6842F0E3
:1045B0000202DA601A6842F001021A6000207047B5
:1045C0001A6A22F010021A621A6A42F010021A6283
:1045D000DA6842F00402ECE703681A6AD9B922F0FB
:1045E00001021A621A6A1A62DA6822F00202DA60BA
:1045F000196A41F21112114208D1196A40F244427B
:10460000114202BF1A6822F001021A60012380F8E9
:10461000393000207047042908D122F010021A62B4
:104620001A6A1A62DA6822F00402E0E722F0010254
:104630001A621A6A1A621A6A22F010021A621A6A56
:104640001A62DA6822F00202DA60EBE72DE9F04143
:10465000044690F83900BDF81850C0B202280E4642
:104660001F462BD094F83930012B06D102B10FB977
:10467000002D75D1022384F83930042E20D0182E55
:104680003AD0D6B9206A384B2168C363374BC3642C
:1046900034312B46FDF7BEF82368DA6842F4007225
:1046A000DA601A6842F001021A601A6A22F0010206
:1046B0001A621A6A42F001021A620020BDE8F08113
:1046C000606A294B2168C363284BC3643A462B4672
:1046D0003831FDF79FF82368DA6842F48062DA60C7
:1046E0001A6842F001021A601A6A22F010021A6275
:1046F0001A6A42F01002DFE7206A2168DFF868805A
:104700001A4EC0F83C802B463431C664FDF782F85F
:10471000606A2168C0F83C802B463A46C66438314E
:10472000FDF778F823681A6842F001021A601A6AE5
:1047300022F001021A621A6A42F001021A621A6A2F
:1047400022F010021A621A6A42F010021A62DA6843
:1047500042F40072DA60DA6842F48062DA60ACE750
:104760000120BDE8F08100BFE74C0008B94E000809
:1047700003681A6AD9B922F001021A621A6A1A6227
:10478000DA6822F40072DA60196A41F211121142F9
:1047900008D1196A40F24442114202BF1A6822F05D
:1047A00001021A60012380F8393000207047042983
:1047B00008D122F010021A621A6A1A62DA6822F428
:1047C0008062E0E722F001021A621A6A1A621A6A2B
:1047D00022F010021A621A6A1A62DA6822F400726F
:1047E000DA60EBE7F8B5044690F83900069DC0B2F0
:1047F00002280F46164619462BD094F83900C0B24D
:10480000012804D103B925BB022384F83930B6F559
:10481000006F22682ED01DD8B6F5007F25D0B6F5E2
:10482000806F25D0B6F5807F09D1E069154BC36351
:10483000154BC3642B0A01334C32FCF7EBFF2368A2
:104840003D439D64DA681643DE60012384F8393005
:104850000020F8BDB6F5005F0ED0B6F5804F0ED043
:10486000B6F5805FEBD1E06A00E0206A074BDEE737
:10487000606AFBE7A06AF9E7206B054BD7E7606B3E
:10488000044BD4E7D34C0008B94E0008254D00086E
:10489000D3620008A74E0008F8B5044690F8390026
:1048A000069DC0B2022816460F461A462BD094F831
:1048B0003900C0B2012804D103B925BB022384F812
:1048C0003930B6F5006F21682ED01DD8B6F5007FBF
:1048D00025D0B6F5806F25D0B6F5807F09D1E06987
:1048E000154BC363154BC3642B0A01334C31FCF7E2
:1048F00091FF23683D439D64DA681643DE6001231F
:1049000084F839300020F8BDB6F5005F0ED0B6F55A
:10491000804F0ED0B6F5805FEBD1E06A00E0206AF0
:10492000074BDEE7606AFBE7A06AF9E7206B054BFF
:10493000D7E7606B044BD4E7D34C0008B94E0008AE
:10494000E74C0008D3620008A74E0008B1F5006FDD
:1049500038B505460C4622D012D8B1F5007F1AD0E2
:10496000B1F5806F19D0B1F5807F02D1C069FCF735
:104970008FFF2A68D36823EA0404D460002038BD7E
:10498000B1F5005F0DD0B1F5804F0CD0B1F5805F6F
:10499000EFD1C06AEBE7006AE9E7406AE7E7806ABF
:1049A000E5E7006BE3E7406BE1E7FFF7CFBF90F887
:1049B0003830012B4FF0020309D080F839300368FA
:1049C0005961012380F83930002380F838301846C7
:1049D000704790F83830012B70B54FF002032BD0A0
:1049E00080F839304B680124A34280F838400BD15D
:1049F0008E680568CB68AC6833430E6924F47F4445
:104A000043EA06232343AB600C2A0FD8DFE802F009
:104A1000070E0E0E1A0E0E0E250E0E0E31000A682F
:104A200003685AB19A6942F080029A61012380F8C2
:104A30003930002380F83830184670BD9A6922F06A
:104A40008002F2E70A6803681AB19A6942F40042E8
:104A5000EBE79A6922F40042E7E70A68036822B1AB
:104A6000DA6942F08002DA61E0E7DA6922F0800276
:104A7000F9E70A6803681AB1DA6942F40042F2E71A
:104A8000DA6922F40042EEE790F83830012B70B575
:104A90004FF002031CD080F839300368012280F8FF
:104AA00038209A6822F47F4222F077029A600A68DE
:104AB000402A79D019D8102A00F093800AD8002A09
:104AC00000F08980012380F83930002380F83830E5
:104AD000184670BD202A00F08A80302AF2D19A68E8
:104AE00022F0700242F0370236E0702A36D01BD82E
:104AF000502A42D0602AE5D11C6A4D68CE6824F065
:104B000010041C6299691A6A21F4704122F0A00213
:104B100042EA051241EA063199611A629A6822F066
:104B2000700242F0670217E0B2F5805F11D0B2F573
:104B3000005FC7D18A684D689C68C9682A4324F41D
:104B40007F4442EA012222439A609A6842F48042FA
:104B500002E09A6822F007029A60B3E78A684D681B
:104B60009C68C9682A4324F47F4442EA0122224314
:104B70009A609A6842F07702EEE74C68CE68196A4C
:104B80001D6A25F001051D629A6921F00A0122F0D3
:104B9000F00242EA061221439A6119629A6822F0F1
:104BA000700242F05702D7E74C68CE68196A1D6A56
:104BB00025F001051D629A6921F00A0122F0F00238
:104BC00042EA061221439A6119629A6822F0700241
:104BD00042F04702C0E79A6822F0700242F00702F2
:104BE000BAE79A6822F0700242F01702B4E79A68B6
:104BF00022F0700242F02702AEE70268536823F009
:104C00008003194351600020704738B590F8383060
:104C1000012B04464FF0020315D0012580F83850CF
:104C200080F83930FFF70EFA2368DA6822F0400284
:104C3000DA60DA68002022F48042DA6084F83950C1
:104C400084F8380038BD184638BD38B590F838308B
:104C5000012B04464FF0020315D0012580F838508F
:104C600080F83930FFF7EEF92368DA6842F0400245
:104C7000DA60DA68002022F48042DA6084F8395081
:104C800084F8380038BD184638BD90F83830012B0C
:104C90001CD00C2918D8DFE801F0071717170E17DA
:104CA000171711171717140003685B6B002280F8A1
:104CB00038201846704703689B6BF7E70368DB6B87
:104CC000F4E703681B6CF1E70023EFE70223F0E74A
:104CD000704708B5806B012380F83930FFF7F8FF83
:104CE00008BD7047704710B5846B226A012390425B
:104CF00084F8393006D123762046FFF7F3FF0023EE
:104D0000237610BD636A984201D10223F3E7A36AB8
:104D1000984201D10423EEE7E36A9842ECD10823DC
:104D2000E9E7704710B5846B226A0123904284F84A
:104D3000393006D123762046FFF7F3FF0023237690
:104D400010BD636A984201D10223F3E7A36A984237
:104D500001D10423EEE7E36A9842ECD10823E9E7A6
:104D6000704703681A69910710B504460ED5DA68D2
:104D700092070BD56FF002021A619B6901229B0713
:104D8000027677D0FFF7AEFF0023237623681A69F7
:104D9000500710D5DA6851070DD56FF004021A617B
:104DA0009B69022213F4407F2276204668D0FFF7E9
:104DB00099FF0023237623681A6912070FD5DA6852
:104DC00010070CD56FF008021A61DB6904229907FD
:104DD000227620465AD0FFF785FF002323762368EA
:104DE0001A69D20610D5DA68D0060DD56FF0100218
:104DF0001A61DB69082213F4407F227620464BD0EB
:104E0000FFF770FF0023237623681A69D10708D5BE
:104E1000DA68D20705D56FF001021A612046FFF764
:104E200057FF23681A69100608D5DA68110605D5F8
:104E30006FF080021A61204601F053FA23681A6964
:104E4000520608D5DA68500605D56FF040021A619F
:104E50002046FFF785FF23681A69910622D5DA6894
:104E600092061FD56FF0200220461A61BDE810405F
:104E700001F02EBAFFF735FF2046FFF752FF83E718
:104E8000FFF72FFF2046FFF74CFF92E7FFF729FFC0
:104E90002046FFF746FFA0E7FFF723FF2046FFF776
:104EA00040FFAFE710BD08B5806B012380F83930B3
:104EB000FFF756FF08BD704708B5806B012380F8E7
:104EC0003930FFF7F8FF08BD90F83900704790F8C7
:104ED0003900704790F83900704790F839007047F2
:104EE00090F83900704790F8390070472E4A0368EF
:104EF000904212D0B0F1804F0FD0A2F57C42904288
:104F00000BD002F58062904207D002F58062904299
:104F100003D002F5784290421DD14A6823F0700315
:104F20001343214A904204D1CA6823F440731343C7
:104F300028E0B0F1804FF7D01C4A9042F4D002F53F
:104F400080629042F0D002F580629042ECD002F58F
:104F500078429042E8D0164A9042E5D002F580624D
:104F60009042E1D002F580629042DDD0A2F5983205
:104F70009042D9D002F580629042D5D002F580628D
:104F80009042D1D003608B68C3620B688362064B8A
:104F9000984206D003F58063984202D00123436112
:104FA00070470B690363F9E700000140000400400B
:104FB0000040014010B50446A0B190F8393003F02C
:104FC000FF021BB980F8382010F082FF022384F81A
:104FD00039302068211DFFF789FF012384F839301B
:104FE000002010BD012010BD10B50446A0B190F8FE
:104FF000393003F0FF021BB980F83820FFF71CF9A5
:10500000022384F839302068211DFFF76FFF012348
:1050100084F83930002010BD012010BD10B50446C1
:10502000A0B190F8393003F0FF021BB980F83820A6
:1050300010F00CFF022384F839302068211DFFF79F
:1050400055FF012384F83930002010BD012010BD28
:1050500010B50446A0B190F8393003F0FF021BB937
:1050600080F83820FFF726F9022384F839302068C9
:10507000211DFFF73BFF012384F83930002010BDCC
:10508000012010BD38B50D460446E0B190F8393026
:1050900003F0FF021BB980F83820FFF72AF902233A
:1050A00084F83930211D2068FFF720FF23681A6833
:1050B00022F008021A60196829431960012384F854
:1050C0003930002038BD012038BDF8B50C46054602
:1050D000002841D090F8393003F0FF021BB980F866
:1050E000382010F057FE2946022351F8040B85F8AA
:1050F0003930836823F007038360FFF7F7FE2868E1
:10510000236886688269A168076A1E43A36922F43E
:10511000407222F0030241EA0323134323F47C424A
:105120002369E1691B0143EA0123E1680B43216A1A
:1051300022F0FC0243EA01331343616927F0AA021B
:105140006768866047EA0117836117430123076296
:1051500085F839300020F8BD0120F8BD70B5046A2B
:105160001A4E24F0010404628469056AB04224F0F6
:1051700003041AD0B0F1804F17D0A6F57C46B04298
:1051800013D006F58066B0420FD006F58066B042B7
:105190000BD006F57846B04207D006F57056B042FF
:1051A00003D0A6F59436B0420DD122431B0122F064
:1051B000F002DBB225F00A0501F00A011A43294387
:1051C0008261016270BD44F00102EFE7000001401E
:1051D000F8B590F83830012B04460D464FF0020028
:1051E00019D0012384F8383084F83900A2B9CB688B
:1051F000206806C9FFF7B2FF2368A9689A6922F000
:105200000C029A619A690A439A610123002084F88A
:10521000393084F83800F8BD042A8E682368E868BD
:1052200082C91FD11A6A22F010021A629A691D6A95
:1052300022F4407242EA0722000380B222F4704254
:105240000901024301F0A00125F0A00001439A6189
:1052500019629A6922F440629A619A6942EA0626C2
:105260009E61D2E7082A1A6A1CD122F480721A625F
:10527000DA691D6A22F003023A430001C0B222F04B
:10528000F0020902024301F4206125F42060014389
:10529000DA611962DA6922F00C02DA61DA6916431E
:1052A000DE61B2E722F480521A62DA691D6A22F4E2
:1052B000407242EA0722000322F4704280B20903DE
:1052C000104301F4204125F420421143D8611962B2
:1052D000DA6922F44062DA61DA6942EA0626DFE737
:1052E000036A23F010030362036A426870B584699D
:1052F0000D6824F4E64444EA05258C6823F0200375
:1053000043EA04130D4CA04209D004F58064A04286
:1053100005D042604A6885618263036270BDCC68D3
:105320008E6923F0800343EA04134C6922F440623F
:10533000344323F0400342EA8402EAE700000140DC
:1053400038B590F83830012B04464FF0020018D0E1
:10535000012384F8383084F839001D460C2A0BD814
:10536000DFE802F0070A0A0A100A0A0A140A0A0AFF
:1053700018002068FEF7E2FD002084F8395084F818
:10538000380038BD2068FFF7ABFFF5E72068FEF76F
:1053900001FEF1E72068FEF72DFEEDE738B590F845
:1053A0003830012B04464FF0020025D0012384F849
:1053B000383084F839000C2A18D8DFE802F00717D3
:1053C00017171E1717172F17171740002068FEF71B
:1053D000B5FD236809699A6942F008029A619A69E1
:1053E00022F004029A619A690A439A61012300201B
:1053F00084F8393084F8380038BD2068FFF770FF32
:10540000236809699A6942F400629A619A6922F4F0
:1054100080629A619A6942EA0122E6E72068FEF713
:10542000B9FD23680969DA6942F00802DA61DA69CC
:1054300022F00402DA61DA690A43DA61D6E7206809
:10544000FEF7D8FD23680969DA6942F40062DA617F
:10545000DA6922F48062DA61DA6942EA0122ECE771
:1054600070B59A4288B005460C461E4671D090F839
:105470003830012B4FF002001CD0012385F8383062
:105480000B6801934B6802938B680393CB6804937A
:105490000B6906934B6985F83900079362B1042ABA
:1054A0000FD09EB1042E2DD00123002085F8393075
:1054B00085F8380008B070BD01A92868FEF73EFDE8
:1054C000EFE701A92868FFF70BFFEAE704F11801ED
:1054D0000EC92868FFF742FE2B689A6922F00C0279
:1054E0009A619A6822F070029A609A6842F05002BB
:1054F0009A609A6822F007029A609A6842F006025F
:105500009A60D1E72B68A269E669216A1C6A24F0D7
:1055100010041C6298691C6A20F4407040EA06205E
:10552000090320F4704089B21201014302F0A00285
:1055300024F0A000024399611A629A6922F4406241
:105540009A619A6822F070029A609A6842F060024A
:10555000CEE70120AEE7036A10B501248C4023EAB0
:1055600004030362036A8A401A43026210BD10B545
:10557000044600220068FFF7EEFF2368124A9342B8
:1055800003D002F5806293420DD1196A41F21112E3
:10559000114208D1196A40F24442114202BF5A6CCA
:1055A00022F400425A64196A41F21112114208D1E0
:1055B000196A40F24442114203D11A6822F00102F2
:1055C0001A60002010BD00BF0000014010B5044665
:1055D00001220068FFF7BFFF2368084A934203D007
:1055E00002F58062934203D15A6C42F400425A643D
:1055F0001A6842F001021A60002010BD000001404C
:10560000FFF7E4BF10B5044600220068FFF7A3FFD0
:105610002368144A934203D002F5806293420DD16D
:10562000196A41F21112114208D1196A40F244423A
:10563000114202BF5A6C22F400425A64196A41F2C4
:105640001112114208D1196A40F24442114203D1A9
:105650001A6822F001021A60012384F83930002010
:1056600010BD00BF0000014010B504460C290DD844
:10567000DFE801F0070C0C0C220C0C0C270C0C0CB6
:105680002C000268D36843F00203D3600122206833
:10569000FFF761FF2368104A934203D002F580624E
:1056A000934203D15A6C42F400425A641A6842F0A1
:1056B00001021A60002010BD0268D36843F00403A1
:1056C000E3E70268D36843F00803DEE70268D368C3
:1056D00043F01003D9E700BF00000140FFF7C4BF4B
:1056E00010B504460C290DD8DFE801F0070C0C0CAE
:1056F000360C0C0C3B0C0C0C40000268D36823F0F9
:105700000203D36000222068FFF725FF23681A4AAE
:10571000934203D002F5806293420DD1196A41F29F
:105720001112114208D1196A40F24442114202BFDB
:105730005A6C22F400425A64196A41F21112114261
:1057400008D1196A40F24442114203D11A6822F08A
:1057500001021A60002010BD0268D36823F0040320
:10576000CFE70268D36823F00803CAE70268D3686A
:1057700023F01003C5E700BF00000140FFF7B0BFF2
:1057800038B5044690F83900C0B202280D461146DB
:1057900065D094F83900C0B2012805D10AB9002BB0
:1057A0005DD1022284F839200C2D16D8DFE805F0EF
:1057B0000715151528151515361515154400206AF9
:1057C000274AC263274AC26422683432FCF722F8AF
:1057D0002268D36843F40073D3600122294620680D
:1057E000FFF7B9FE2368204A934233D002F5806266
:1057F00093422FD01A6842F001021A60002038BD8F
:10580000606A174AC263174AC26422683832FCF7DA
:1058100001F82268D36843F48063DDE7A06A104A88
:10582000C263104AC26422683C32FBF7F3FF22686D
:10583000D36843F40063CFE7E06A094AC263094AC8
:10584000C26422684032FBF7E5FF2268D36843F464
:105850008053C1E75A6C42F400425A64CAE738BD2B
:10586000254D0008B94E000800000140FFF788BF31
:1058700010B504460C290DD8DFE801F0070C0C0C1C
:10588000390C0C0C3E0C0C0C43000268D36823F45A
:105890000073D36000222068FFF75DFE23681B4A77
:1058A000934203D002F5806293420DD1196A41F20E
:1058B0001112114208D1196A40F24442114202BF4A
:1058C0005A6C22F400425A64196A41F211121142D0
:1058D00008D1196A40F24442114203D11A6822F0F9
:1058E00001021A60012384F83930002010BD0268DB
:1058F000D36823F48063CCE70268D36823F40063A1
:10590000C7E70268D36823F48053C2E70000014070
:10591000FFF7AEBF10B5044601220068FFF71BFE7B
:105920002268136843F001031360002010BD10B516
:10593000044600220068FFF70EFE2368196A41F250
:105940001112114208D1196A40F24442114202BFB9
:105950001A6822F001021A60002010BD10B504463A
:105960000C290DD8DFE801F0070C0C0C170C0C0CFF
:105970001C0C0C0C21000268D36843F00203D360B6
:1059800020680122FFF7E7FD2268136843F0010356
:105990001360002010BD0268D36843F00403EEE7F3
:1059A0000268D36843F00803E9E70268D36843F06C
:1059B0001003E4E710B504460C290DD8DFE801F028
:1059C000070C0C0C210C0C0C260C0C0C2B00026888
:1059D000D36823F00203D36000222068FFF7BBFDE9
:1059E0002368196A41F21112114208D1196A40F272
:1059F0004442114202BF1A6822F001021A600020DC
:105A000010BD0268D36823F00403E4E70268D3689A
:105A100023F00803DFE70268D36823F01003DAE716
:105A200038B5044690F83900C0B202280D462DD092
:105A300094F83900C0B2012804D102B933BB022165
:105A400084F839100C2D16D8DFE805F00715151568
:105A5000211515152F1515153D00206A2149C16323
:105A60002149C16421683431FBF7D4FE2268D36830
:105A700043F40073D360012220682946FFF76BFDD1
:105A80002268136843F001031360002038BD606A88
:105A90001449C1631449C16421683831FBF7BAFE67
:105AA0002268D36843F48063E4E7A06A0D49C163C8
:105AB0000D49C16421683C31FBF7ACFE2268D36814
:105AC00043F40063D6E7E06A0649C1630649C1644E
:105AD00021684031FBF79EFE2268D36843F480536F
